:100000000C9434000C9451000C9451000C94510049
:100010000C9451000C9451000C9451000C9451001C
:100020000C9451000C9451000C9451000C9451000C
:100030000C9451000C9451000C9451000C945100FC
:100040000C9451000C9451000C9471030C94C60351
:100050000C9451000C9451000C9451000C945100DC
:100060000C9451000C94510011241FBECFEFD8E026
:10007000DEBFCDBF11E0A0E0B1E0E0E9F8E102C0F1
:1000800005900D92A032B107D9F712E0A0E2B1E0DD
:1000900001C01D92A532B107E1F70E944C050C94F6
:1000A000460C0C940000CF93DF931F92CDB7DEB7C0
:1000B00089838AE790E02AE730E0F90120812F77F1
:1000C000FC0120838CE790E02CE730E0F9012081EF
:1000D000322F387F29812770232BFC0120838AE768
:1000E00090E02AE730E0F90120812068FC012083BC
:1000F0000F90DF91CF910895CF93DF9300D0CDB7CC
:10010000DEB78AE790E02AE730E0F9012081206439
:10011000FC01208300008AE790E0FC018081882FA9
:1001200090E0807499270097B1F788E790E0FC0190
:10013000808191819A83898389819A810F900F9020
:10014000DF91CF910895CF93DF931F92CDB7DEB7A4
:10015000898389810E9453000E947C000F90DF9167
:10016000CF910895CF93DF93CDB7DEB78CE790E0C2
:100170002CE730E0F90120812064FC0120838AE72C
:1001800090E02AE730E0F90120812760FC0120831C
:100190008CE790E02CE730E0F9012081FC0120831E
:1001A0008BE790E02BE730E0F9012081FC01208310
:1001B0008AE790E02AE730E0F90120812068FC011D
:1001C0002083DF91CF910895CF93DF93CDB7DEB732
:1001D000A2970FB6F894DEBF0FBECDBF19821A8268
:1001E0001B821C828EE00E94530080E090E0AAE710
:1001F000B3E48F839887A987BA872BEA3AEA4AE261
:1002000050E46F81788589859A850E941209DC0106
:10021000CB018B879C87AD87BE8720E030E040E82C
:100220005FE36B857C858D859E850E94BF07882353
:100230001CF481E08F8791C020E030E04FE753E469
:100240006B857C858D859E850E940E0918160CF0A5
:100250007BC020E030E04AE754E46F8178858985EF
:100260009A850E94C307DC01CB01888B998BAA8BEE
:10027000BB8B20E030E04AEF54E4688979898A89B1
:100280009B890E941209DC01CB018C8B9D8BAE8B6C
:10029000BF8B20E030E040E85FE36C897D898E8988
:1002A0009F890E94BF0788232CF481E090E0998FFA
:1002B000888F3FC020E03FEF4FE757E46C897D898E
:1002C0008E899F890E940E0918164CF520E030E0B7
:1002D00040E251E4688979898A899B890E941209E0
:1002E000DC01CB01BC01CD010E943008DC01CB0157
:1002F000998F888F0FC088EC90E09B8F8A8F8A8DB2
:100300009B8D0197F1F79B8F8A8F888D998D01972F
:10031000998F888F888D998D009769F724C06C8993
:100320007D898E899F890E943008DC01CB01998FDD
:10033000888F888D998D9D8F8C8F8C8D9D8D019749
:10034000F1F79D8F8C8F0FC06B857C858D859E8589
:100350000E943008DC01CB018F878F858E8F8E8DB8
:100360008A95F1F78E8F0E947C009E838D838D810C
:100370009E819C0140E050E080E090E3A1E1B0E08C
:10038000BC01CD010E940507DA01C901BC01CD0104
:100390000E945E08DC01CB0120E030E04AE754E433
:1003A000BC01CD010E94C307DC01CB0189839A8384
:1003B000AB83BC8389819A81AB81BC81BC01CD01B7
:1003C000A2960FB6F894DEBF0FBECDBFDF91CF91DE
:1003D0000895EF92FF920F931F93CF93DF93CDB7C2
:1003E000DEB728970FB6F894DEBF0FBECDBF9A8355
:1003F00089837C836B8389819A81009721F480E0D3
:1004000090E0DC0128C08B819C81CC01A0E0B0E0B1
:10041000072E7AE0880F991FAA1FBB1F7A95D1F784
:10042000702D29813A81990140E050E0BC01CD0155
:100430000E940507DA01C9019C01AD018B819C81F5
:10044000CC01A0E0B0E079018A01E81AF90A0A0BB0
:100450001B0BD801C701BC01CD0128960FB6F8943B
:10046000DEBF0FBECDBFDF91CF911F910F91FF90E7
:10047000EF900895CF93DF9300D000D000D0CDB798
:10048000DEB79A8389834B835C836D837E83898106
:100490009A81009721F480E090E0DC011FC08981FF
:1004A0009A81CC01A0E0B0E0BC01CD010E945C08C3
:1004B000DC01CB012B813C814D815E81BC01CD01F2
:1004C0000E941209DC01CB0120E030E040E854E456
:1004D000BC01CD010E94C307DC01CB01BC01CD01F1
:1004E00026960FB6F894DEBF0FBECDBFDF91CF9139
:1004F0000895CF93DF9300D000D0CDB7DEB79A83B5
:1005000089837C836B838B819C8142E2489F90012D
:10051000499F300D112449815A816EE1649FC001C9
:10052000659F900D1124820F931F9C838B838B8179
:100530009C810024880F991F001C880F991F001CA4
:10054000892F902D9C838B838B819C810F900F90A2
:100550000F900F90DF91CF910895CF92DF92EF929D
:10056000FF92CF93DF93CDB7DEB728970FB6F894FD
:10057000DEBF0FBECDBF9E838D8378876F831C82C5
:100580001B821A8219828D819E81FC01808191815A
:10059000A281B381BC01CD010E942B08DC01CB01FB
:1005A0009C838B838D819E81FC01C080D180E28001
:1005B000F3808B819C81AA2797FDA095BA2FBC015F
:1005C000CD010E945E08DC01CB019C01AD01C70199
:1005D000B6010E945A07DC01CB0120E030E44CE177
:1005E00056E4BC01CD010E941209DC01CB01BC0123
:1005F000CD010E942B08DC01CB019A83898389817C
:100600009A8199233CF489819A81919581959109E8
:100610009A8389838A818F9389818F938C818F9329
:100620008B818F9380E091E0892F8F9380E091E020
:100630008F9388858F938F818F930E9475098DB7D3
:100640009EB708960FB6F894DEBF0FBECDBF2896B2
:100650000FB6F894DEBF0FBECDBFDF91CF91FF90F4
:10066000EF90DF90CF900895CF93DF93CDB7DEB7B3
:1006700028970FB6F894DEBF0FBECDBF69837A838B
:100680008B839C832D833E834F83588720E030E00B
:1006900040E050E46D817E818F8198850E94C30780
:1006A000DC01CB019C01AD0169817A818B819C8148
:1006B0000E945A07DC01CB0124EA30E74DE35EE3F8
:1006C000BC01CD010E94C307DC01CB01BC01CD01FF
:1006D00028960FB6F894DEBF0FBECDBFDF91CF9145
:1006E00008951F920F9200905F000F9211242F9394
:1006F0003F938F939F93EF93FF93CF93DF93CDB768
:10070000DEB72597DEBFCDBF80EC90E0FC01808195
:100710008A8386EC90E0FC0180818B838A818871DA
:10072000898380912202882F90E001968F77992704
:100730009D838C8380912302282F30E08C819D81C2
:100740002817390719F482E089830AC08C818093C5
:1007500022028C819D8180569E4F2B81FC0120833B
:100760008981809324020F900F900F900F900F902B
:10077000DF91CF91FF91EF919F918F913F912F91B9
:100780000F9000925F000F901F9018951F920F928C
:1007900000905F000F9211242F933F938F939F93AC
:1007A000EF93FF93CF93DF9300D0CDB7DEB7909157
:1007B0002002809121029817B9F080912102882FA0
:1007C00090E001968F7799279A8389838981809316
:1007D000210286EC90E029813A81205E3E4FF901AA
:1007E0002081FC01208309C081EC90E021EC30E005
:1007F000F90120812F7DFC0120830F900F90DF9164
:10080000CF91FF91EF919F918F913F912F910F90F9
:1008100000925F000F901F901895CF93DF9300D048
:10082000CDB7DEB79A8389831092200210922102FD
:10083000109222021092230289819A81992354F402
:1008400080EC90E022E0FC01208389819A819F77EF
:100850009A83898385EC90E029813A81232F33277D
:10086000FC01208384EC90E02981FC01208381EC51
:1008700090E028E9FC01208382EC90E026E0FC0176
:1008800020830F900F90DF91CF910895CF93DF9346
:1008900000D01F92CDB7DEB7909122028091230243
:1008A000981719F480E091E01EC080912302882FF0
:1008B00090E001968F7799279A8389838981809325
:1008C000230289819A8180569E4FFC0180818B830F
:1008D00080912402882F90E0382F22278B81882F47
:1008E00090E0820F931F0F900F900F90DF91CF91A8
:1008F0000895CF93DF9300D01F92CDB7DEB79091CC
:10090000220280912302981719F480E091E01BC025
:1009100080912302882F90E001968F7799279A8300
:10092000898389819A8180569E4FFC0180818B83C7
:1009300080912402882F90E0382F22278B81882FE6
:1009400090E0820F931F0F900F900F90DF91CF9147
:100950000895CF93DF9300D01F92CDB7DEB78B837E
:1009600080912002882F90E001968F7799279A83B3
:100970008983000080912102282F30E089819A81AB
:1009800028173907B9F389819A81805E9E4F2B81A0
:10099000FC01208389818093200281EC90E021EC8E
:1009A00030E0F90120812062FC0120830F900F903C
:1009B0000F90DF91CF910895CF93DF9300D0CDB703
:1009C000DEB79A8389830BC089819A819C012F5F4E
:1009D0003F4F3A832983FC0180810E94A9048981C9
:1009E0009A81FC018081882379F70F900F90DF9125
:1009F000CF9108951F93CF93DF9300D000D01F9223
:100A0000CDB7DEB79D838C8303C0812F0E94A904DC
:100A10008C819D819C012F5F3F4F3D832C839A8366
:100A2000898389819A81FC0184918B838B81182F22
:100A3000112359F70F900F900F900F900F90DF91A7
:100A4000CF911F910895CF93DF9300D0CDB7DEB73C
:100A500080912202882F90E09C0121583F4F809185
:100A60002302882F90E0A901481B590BCA012FE7E8
:100A700030E0B9010E94F1060F900F90DF91CF9105
:100A80000895CF93DF93CDB7DEB780912302809393
:100A90002202DF91CF9108950F931F93CF93DF939D
:100AA000CDB7DEB7C054D2400FB6F894DEBF0FBE4C
:100AB000CDBF1D861E861F86188A19A21AA21BA2E8
:100AC0001CA21DA21EA21FA218A620E6CE01899676
:100AD000FC01322F11923A95E9F719829E012757AE
:100AE0003F4F80E991E0F901AC0111924150504033
:100AF000E1F71A8A198ACE01875E9D4F28E2FC0130
:100B0000322F11923A95E9F71C821D821E821F82B4
:100B1000188619861A861B861C860E94B20082E0FF
:100B20000E94530089E190E00E940D0478948AE0CD
:100B300091E00E94DC0480E090E0AAE7B4E48B8BB3
:100B40009C8BAD8BBE8B20E030E04AEF54E46B8988
:100B50007C898D899E890E941209DC01CB018F8BD3
:100B6000988FA98FBA8F20E030E040E85FE36F896B
:100B7000788D898D9A8D0E94BF0788232CF481E09F
:100B800090E09C8F8B8F3FC020E03FEF4FE757E412
:100B90006F89788D898D9A8D0E940E0918164CF5F3
:100BA00020E030E040E251E46B897C898D899E89A8
:100BB0000E941209DC01CB01BC01CD010E9430086A
:100BC000DC01CB019C8F8B8F0FC088EC90E09E8F57
:100BD0008D8F8D8D9E8D0197F1F79E8F8D8F8B8DD3
:100BE0009C8D01979C8F8B8F8B8D9C8D009769F7C7
:100BF00014C06F89788D898D9A8D0E943008DC0130
:100C0000CB019C8F8B8F8B8D9C8D98A38F8F8F8D1D
:100C100098A10197F1F798A38F8F19823DC00E9488
:100C20007C009A8B898B8981082F10E02A813B8177
:100C300089899A89B9010E947902AC019E012757DE
:100C40003F4FC801880F991F820F931FFC015183EA
:100C5000408389899A899B838A838981882F90E040
:100C60009E0127573F4F880F991F820F931FFC014A
:100C700080819181CC01A0E0B0E02D813E814F8147
:100C80005885820F931FA41FB51F8D839E83AF834A
:100C9000B88789818F5F89838981883C08F4BFCFB9
:100CA0006D817E818F8198850E945C08DC01CB017B
:100CB00020E030E048E453E4BC01CD010E94C307CA
:100CC000DC01CB012FE73AE644EA50E4BC01CD0158
:100CD0000E941209DC01CB0120E030E040E854E43E
:100CE000BC01CD010E94C307DC01CB018D879E872B
:100CF000AF87B88B1D821E821F8218868C81082FB9
:100D000010E08D859E85AF85B8892FE73AE644EAE5
:100D100050E4BC01CD010E943403DC01CB01AE01E3
:100D2000475E5D4F9801220F331F220F331F240FA0
:100D3000351FF90180839183A283B383198222C076
:100D40008981882F90E09E01275E3D4F880F991F73
:100D5000880F991F820F931FFC0180819181A281CE
:100D6000B3819C01AD0169857A858B859C850E9444
:100D70005B07DC01CB0189879A87AB87BC878981B8
:100D80008F5F898389818A30D8F220E030E040E2A9
:100D900051E469857A858B859C850E94C307DC01B7
:100DA000CB0189A39AA3ABA3BCA319861A861B8681
:100DB0001C868C818F5F8C838C818A3008F01C822A
:100DC0009E012B5D3F4FCE018196B9010E94AD027D
:100DD000CE0185960E94DC048CE191E00E94DC0447
:100DE0001CCF97FB072E16F4009407D077FD09D08F
:100DF0000E94240707FC05D03EF4909581959F4FF3
:100E00000895709561957F4F0895052E97FB1EF408
:100E100000940E941C0757FD07D00E94380707FC6A
:100E200003D04EF40C941C075095409530952195B5
:100E30003F4F4F4F5F4F0895909580957095619506
:100E40007F4F8F4F9F4F0895AA1BBB1B51E107C0D7
:100E5000AA1FBB1FA617B70710F0A61BB70B881F4A
:100E6000991F5A95A9F780959095BC01CD010895D9
:100E7000A1E21A2EAA1BBB1BFD010DC0AA1FBB1F9E
:100E8000EE1FFF1FA217B307E407F50720F0A21B10
:100E9000B30BE40BF50B661F771F881F991F1A947D
:100EA00069F760957095809590959B01AC01BD01A7
:100EB000CF0108955058BB27AA270ED075C166D11F
:100EC00030F06BD120F031F49F3F11F41EF45BC180
:100ED0000EF4E095E7FB51C1E92F77D180F3BA1703
:100EE000620773078407950718F071F49EF58FC1A8
:100EF0000EF4E0950B2EBA2FA02D0B01B901900135
:100F00000C01CA01A0011124FF27591B99F0593F78
:100F100050F4503E68F11A16F040A22F232F342FC0
:100F20004427585FF3CF469537952795A795F0400E
:100F30005395C9F77EF41F16BA0B620B730B840B23
:100F4000BAF09150A1F0FF0FBB1F661F771F881FDB
:100F5000C2F70EC0BA0F621F731F841F48F4879533
:100F600077956795B795F7959E3F08F0B3CF939522
:100F7000880F08F09927EE0F979587950895D9D097
:100F800008F481E008950CD00FC107D140F0FED0E5
:100F900030F021F45F3F19F0F0C0511139C1F3C0B6
:100FA00014D198F39923C9F35523B1F3951B550B2D
:100FB000BB27AA2762177307840738F09F5F5F4F2C
:100FC000220F331F441FAA1FA9F333D00E2E3AF06D
:100FD000E0E830D091505040E695001CCAF729D087
:100FE000FE2F27D0660F771F881FBB1F26173707D6
:100FF0004807AB07B0E809F0BB0B802DBF01FF2706
:1010000093585F4F2AF09E3F510568F0B6C000C16B
:101010005F3FECF3983EDCF3869577956795B7953F
:10102000F7959F5FC9F7880F911D9695879597F95A
:101030000895E1E0660F771F881FBB1F62177307D3
:101040008407BA0720F0621B730B840BBA0BEE1FE8
:1010500088F7E095089504D06894B111D9C0089537
:10106000BCD088F09F5790F0B92F9927B751A0F0C6
:10107000D1F0660F771F881F991F1AF0BA95C9F72C
:1010800012C0B13081F0C3D0B1E00895C0C0672F65
:10109000782F8827B85F39F0B93FCCF386957795DC
:1010A0006795B395D9F73EF49095809570956195C5
:1010B0007F4F8F4F9F4F0895E89409C097FB3EF4F0
:1010C00090958095709561957F4F8F4F9F4F992395
:1010D000A9F0F92F96E9BB279395F6958795779513
:1010E0006795B795F111F8CFFAF4BB0F11F460FFD3
:1010F0001BC06F5F7F4F8F4F9F4F16C0882311F02B
:1011000096E911C0772321F09EE8872F762F05C03E
:10111000662371F096E8862F70E060E02AF09A95D9
:10112000660F771F881FDAF7880F9695879597F9CE
:101130000895990F0008550FAA0BE0E8FEEF161668
:101140001706E807F907C0F012161306E407F507BB
:1011500098F0621B730B840B950B39F40A2661F02F
:10116000232B242B252B21F408950A2609F4A140D2
:10117000A6958FEF811D811D089597F99F6780E8DF
:1011800070E060E008959FEF80EC089500240A94D9
:101190001616170618060906089500240A94121652
:1011A0001306140605060895092E0394000C11F485
:1011B000882352F0BB0F40F4BF2B11F460FF04C032
:1011C0006F5F7F4F8F4F9F4F089557FD9058440F8B
:1011D000551F59F05F3F71F04795880F97FB991F96
:1011E00061F09F3F79F08795089512161306140653
:1011F000551FF2CF4695F1DF08C0161617061806E0
:10120000991FF1CF86957105610508940895E894BA
:10121000BB2766277727CB0197F908958ADF08F463
:101220008FEF08950BD0C0CFB1DF28F0B6DF18F0F4
:10123000952309F0A2CFA7CF1124EACFC6DFA0F3F0
:10124000959FD1F3950F50E0551F629FF001729F5B
:10125000BB27F00DB11D639FAA27F00DB11DAA1F7A
:10126000649F6627B00DA11D661F829F2227B00DC7
:10127000A11D621F739FB00DA11D621F839FA00D52
:10128000611D221F749F3327A00D611D231F849FA2
:10129000600D211D822F762F6A2F11249F575040F9
:1012A0008AF0E1F088234AF0EE0FFF1FBB1F661F94
:1012B000771F881F91505040A9F79E3F510570F04D
:1012C0005CCFA6CF5F3FECF3983EDCF38695779535
:1012D0006795B795F795E7959F5FC1F7FE2B880F48
:1012E000911D9695879597F90895AEE0B0E0EBE7EC
:1012F000F9E00C941D0C0D891E8986E08C831A83FD
:1013000009838FEF9FE79E838D83AE01475E5F4F1A
:101310006F89788DCE0101960E949709EF81F8853B
:10132000E00FF11F10822E96E4E00C94390CACE033
:10133000B0E0EDE9F9E00C940F0C7C016B018A013F
:10134000FC0117821682838181FFBDC1CE01019607
:101350004C01F7019381F60193FD859193FF8191F3
:101360006F01882309F4ABC1853239F493FD85916F
:1013700093FF81916F01853229F4B70190E00E94BB
:101380007F0BE7CF512C312C20E02032A0F48B32A0
:1013900069F030F4803259F0833269F420612CC056
:1013A0008D3239F0803339F4216026C02260246008
:1013B00023C0286021C027FD27C030ED380F3A3008
:1013C00078F426FF06C0FAE05F9E300D1124532EFC
:1013D00013C08AE0389E300D1124332E20620CC0D9
:1013E0008E3221F426FD6BC1206406C08C3611F4C8
:1013F000206802C0883641F4F60193FD859193FF81
:1014000081916F018111C1CF982F9F7D95549330A9
:1014100028F40C5F1F4FFFE3F9830DC0833631F0D2
:10142000833771F0833509F05BC022C0F8018081F9
:1014300089830E5F1F4F44244394512C540115C0DF
:101440003801F2E06F0E711CF801A080B18026FF18
:1014500003C0652D70E002C06FEF7FEFC5012C87E0
:101460000E94740B2C0183012C852F77222E17C02C
:101470003801F2E06F0E711CF801A080B18026FFE8
:1014800003C0652D70E002C06FEF7FEFC5012C87B0
:101490000E94690B2C012C852068222E830123FCDD
:1014A0001BC0832D90E048165906B0F4B70180E2C6
:1014B00090E00E947F0B3A94F4CFF50127FC8591D0
:1014C00027FE81915F01B70190E00E947F0B3110F0
:1014D0003A94F1E04F1A51084114510471F7E5C0F4
:1014E000843611F0893639F5F80127FF07C060818D
:1014F0007181828193810C5F1F4F08C0608171816F
:10150000882777FD8095982F0E5F1F4F2F76B22E7C
:1015100097FF09C090958095709561957F4F8F4F8B
:101520009F4F2068B22E2AE030E0A4010E94B10B48
:10153000A82EA81844C0853729F42F7EB22E2AE0A1
:1015400030E025C0F22FF97FBF2E8F36C1F018F49E
:10155000883579F0B4C0803719F0883721F0AFC0F2
:101560002F2F2061B22EB4FE0DC08B2D8460B82EBB
:1015700009C024FF0AC09F2F9660B92E06C028E03C
:1015800030E005C020E130E002C020E132E0F801A7
:10159000B7FE07C060817181828193810C5F1F4F0C
:1015A00006C06081718180E090E00E5F1F4FA40152
:1015B0000E94B10BA82EA818FB2DFF77BF2EB6FEF8
:1015C0000BC02B2D2E7FA51450F4B4FE0AC0B2FC24
:1015D00008C02B2D2E7E05C07A2C2B2D03C07A2C13
:1015E00001C0752C24FF0DC0FE01EA0DF11D8081A4
:1015F000803311F4297E09C022FF06C073947394CE
:1016000004C0822F867809F0739423FD13C020FF55
:1016100006C05A2C731418F4530C5718732C7314F7
:1016200068F4B70180E290E02C870E947F0B7394EE
:101630002C85F5CF731410F4371801C0312C24FF1A
:1016400012C0B70180E390E02C870E947F0B2C85AD
:1016500022FF17C021FF03C088E590E002C088E7A1
:1016600090E0B7010CC0822F867859F021FD02C0AE
:1016700080E201C08BE227FD8DE2B70190E00E947D
:101680007F0BA51438F4B70180E390E00E947F0B34
:101690005A94F7CFAA94F401EA0DF11D8081B701A5
:1016A00090E00E947F0BA110F5CF332009F451CEBA
:1016B000B70180E290E00E947F0B3A94F6CFF701E9
:1016C0008681978102C08FEF9FEF2C96E2E10C9408
:1016D0002B0CFC010590615070400110D8F78095EB
:1016E00090958E0F9F1F0895FC01615070400190EE
:1016F0000110D8F7809590958E0F9F1F08950F9336
:101700001F93CF93DF93182F092FEB018B8181FD5E
:1017100003C08FEF9FEF20C082FF10C04E815F811A
:101720002C813D81421753077CF4E881F9819F01A8
:101730002F5F3F4F39832883108306C0E885F985E2
:10174000812F0995892B29F72E813F812F5F3F4FEC
:101750003F832E83812F902FDF91CF911F910F9187
:101760000895FA01AA27283051F1203181F1E89437
:101770006F936E7F6E5F7F4F8F4F9F4FAF4FB1E084
:101780003ED0B4E03CD0670F781F891F9A1FA11D7F
:10179000680F791F8A1F911DA11D6A0F711D811D80
:1017A000911DA11D20D009F468943F912AE0269F45
:1017B00011243019305D3193DEF6CF010895462FA4
:1017C0004770405D4193B3E00FD0C9F7F6CF462F85
:1017D0004F70405D4A3318F0495D31FD40524193EE
:1017E00002D0A9F7EACFB4E0A695979587957795AB
:1017F0006795BA95C9F700976105710508959B0132
:10180000AC010A2E06945795479537952795BA95BA
:10181000C9F7620F731F841F951FA01D08952F9293
:101820003F924F925F926F927F928F929F92AF9270
:10183000BF92CF92DF92EF92FF920F931F93CF93BD
:10184000DF93CDB7DEB7CA1BDB0B0FB6F894DEBF54
:101850000FBECDBF09942A88398848885F846E847A
:101860007D848C849B84AA84B984C884DF80EE80C4
:10187000FD800C811B81AA81B981CE0FD11D0FB6CD
:10188000F894DEBF0FBECDBFED010895F894FFCFF1
:10189000253032642E25303464000D0A5374617291
:1018A00074696E672E2E2E0D0A0D0A000D0A0000B7
:00000001FF
